{
  "contractName": "ProofOfExistence",
  "abi": [
    {
      "constant": true,
      "inputs": [],
      "name": "owner",
      "outputs": [
        {
          "name": "",
          "type": "address"
        }
      ],
      "payable": false,
      "stateMutability": "view",
      "type": "function"
    },
    {
      "inputs": [],
      "payable": false,
      "stateMutability": "nonpayable",
      "type": "constructor"
    },
    {
      "anonymous": false,
      "inputs": [
        {
          "indexed": true,
          "name": "id",
          "type": "uint256"
        },
        {
          "indexed": false,
          "name": "documentHash",
          "type": "bytes32"
        }
      ],
      "name": "ProofCreated",
      "type": "event"
    },
    {
      "constant": false,
      "inputs": [
        {
          "name": "id",
          "type": "uint256"
        },
        {
          "name": "documentHash",
          "type": "bytes32"
        }
      ],
      "name": "notarizeHash",
      "outputs": [],
      "payable": false,
      "stateMutability": "nonpayable",
      "type": "function"
    },
    {
      "constant": true,
      "inputs": [
        {
          "name": "id",
          "type": "uint256"
        },
        {
          "name": "documentHash",
          "type": "bytes32"
        }
      ],
      "name": "doesProofExist",
      "outputs": [
        {
          "name": "",
          "type": "bool"
        }
      ],
      "payable": false,
      "stateMutability": "view",
      "type": "function"
    }
  ],
  "bytecode": "0x6060604052341561000f57600080fd5b336000806101000a81548173ffffffffffffffffffffffffffffffffffffffff021916908373ffffffffffffffffffffffffffffffffffffffff1602179055506102858061005e6000396000f300606060405260043610610057576000357c0100000000000000000000000000000000000000000000000000000000900463ffffffff16806315ca41c31461005c5780638da5cb5b1461008c578063af519bf5146100e1575b600080fd5b341561006757600080fd5b61008a600480803590602001909190803560001916906020019091905050610129565b005b341561009757600080fd5b61009f61020c565b604051808273ffffffffffffffffffffffffffffffffffffffff1673ffffffffffffffffffffffffffffffffffffffff16815260200191505060405180910390f35b34156100ec57600080fd5b61010f600480803590602001909190803560001916906020019091905050610231565b604051808215151515815260200191505060405180910390f35b6000809054906101000a900473ffffffffffffffffffffffffffffffffffffffff1673ffffffffffffffffffffffffffffffffffffffff163373ffffffffffffffffffffffffffffffffffffffff1614151561018457600080fd5b8160006001600083815260200190815260200160002054600019161415156101ab57600080fd5b81600160008581526020019081526020016000208160001916905550827ffbbf8dad2632e75bc114426ca0d629c0beb6c4531599e68d148c70fbb4ffae6f8360405180826000191660001916815260200191505060405180910390a2505050565b6000809054906101000a900473ffffffffffffffffffffffffffffffffffffffff1681565b60008160001916600160008581526020019081526020016000205460001916149050929150505600a165627a7a72305820e065b1adcc539c64546d8b5dd2c4434a2ae7987d807a26e06dceac455185267e0029",
  "source": "pragma solidity ^0.4.21;\n\ncontract ProofOfExistence {\n    \n    event ProofCreated(\n        uint256 indexed id,\n        bytes32 documentHash\n    );\n\n    address public owner;\n  \n    mapping (uint256 => bytes32) hashesById;\n\n    modifier onlyOwner() {\n        require(msg.sender == owner);\n        _;\n    }\n\n    modifier noHashExistsYet(uint256 id) {\n        require(hashesById[id] == \"\");\n        _;\n    }\n\n    function ProofOfExistence() public {\n        owner = msg.sender;\n    }\n\n    function notarizeHash(uint256 id, bytes32 documentHash) onlyOwner noHashExistsYet(id) public {\n        hashesById[id] = documentHash;\n\n        emit ProofCreated(id, documentHash);\n    }\n\n    function doesProofExist(uint256 id, bytes32 documentHash) public view returns (bool) {\n        return hashesById[id] == documentHash;\n    }\n}",
  "sourcePath": "/home/will/dev/blockathon/encoder/contracts/ProofOfExistence.sol",
  "compiler": {
    "name": "solc",
    "version": "0.4.21+commit.dfe3193c.Emscripten.clang"
  },
  "schemaVersion": "2.0.0",
  "updatedAt": "2018-04-14T19:56:58.221Z"
}